{
  "contractName": "ERC721Connector",
  "abi": [
    {
      "inputs": [
        {
          "internalType": "string",
          "name": "name",
          "type": "string"
        },
        {
          "internalType": "string",
          "name": "symbol",
          "type": "string"
        }
      ],
      "stateMutability": "nonpayable",
      "type": "constructor"
    },
    {
      "anonymous": false,
      "inputs": [
        {
          "indexed": true,
          "internalType": "address",
          "name": "_owner",
          "type": "address"
        },
        {
          "indexed": true,
          "internalType": "address",
          "name": "_approved",
          "type": "address"
        },
        {
          "indexed": true,
          "internalType": "uint256",
          "name": "_tokenId",
          "type": "uint256"
        }
      ],
      "name": "Approval",
      "type": "event"
    },
    {
      "anonymous": false,
      "inputs": [
        {
          "indexed": true,
          "internalType": "address",
          "name": "_from",
          "type": "address"
        },
        {
          "indexed": true,
          "internalType": "address",
          "name": "_to",
          "type": "address"
        },
        {
          "indexed": true,
          "internalType": "uint256",
          "name": "_tokenId",
          "type": "uint256"
        }
      ],
      "name": "Transfer",
      "type": "event"
    },
    {
      "inputs": [
        {
          "internalType": "address",
          "name": "_to",
          "type": "address"
        },
        {
          "internalType": "uint256",
          "name": "_tokenId",
          "type": "uint256"
        }
      ],
      "name": "approve",
      "outputs": [],
      "stateMutability": "nonpayable",
      "type": "function"
    },
    {
      "inputs": [
        {
          "internalType": "address",
          "name": "_owner",
          "type": "address"
        }
      ],
      "name": "balanceOf",
      "outputs": [
        {
          "internalType": "uint256",
          "name": "",
          "type": "uint256"
        }
      ],
      "stateMutability": "view",
      "type": "function"
    },
    {
      "inputs": [],
      "name": "name",
      "outputs": [
        {
          "internalType": "string",
          "name": "",
          "type": "string"
        }
      ],
      "stateMutability": "view",
      "type": "function"
    },
    {
      "inputs": [
        {
          "internalType": "uint256",
          "name": "_tokenId",
          "type": "uint256"
        }
      ],
      "name": "ownerOf",
      "outputs": [
        {
          "internalType": "address",
          "name": "",
          "type": "address"
        }
      ],
      "stateMutability": "view",
      "type": "function"
    },
    {
      "inputs": [
        {
          "internalType": "bytes4",
          "name": "interfaceID",
          "type": "bytes4"
        }
      ],
      "name": "supportsInterface",
      "outputs": [
        {
          "internalType": "bool",
          "name": "",
          "type": "bool"
        }
      ],
      "stateMutability": "view",
      "type": "function"
    },
    {
      "inputs": [],
      "name": "symbol",
      "outputs": [
        {
          "internalType": "string",
          "name": "",
          "type": "string"
        }
      ],
      "stateMutability": "view",
      "type": "function"
    },
    {
      "inputs": [
        {
          "internalType": "uint256",
          "name": "index",
          "type": "uint256"
        }
      ],
      "name": "tokenByIndex",
      "outputs": [
        {
          "internalType": "uint256",
          "name": "",
          "type": "uint256"
        }
      ],
      "stateMutability": "view",
      "type": "function"
    },
    {
      "inputs": [
        {
          "internalType": "address",
          "name": "owner",
          "type": "address"
        },
        {
          "internalType": "uint256",
          "name": "index",
          "type": "uint256"
        }
      ],
      "name": "tokenOfOwnerByIndex",
      "outputs": [
        {
          "internalType": "uint256",
          "name": "",
          "type": "uint256"
        }
      ],
      "stateMutability": "view",
      "type": "function"
    },
    {
      "inputs": [],
      "name": "totalSupply",
      "outputs": [
        {
          "internalType": "uint256",
          "name": "",
          "type": "uint256"
        }
      ],
      "stateMutability": "view",
      "type": "function"
    },
    {
      "inputs": [
        {
          "internalType": "address",
          "name": "_from",
          "type": "address"
        },
        {
          "internalType": "address",
          "name": "_to",
          "type": "address"
        },
        {
          "internalType": "uint256",
          "name": "_tokenId",
          "type": "uint256"
        }
      ],
      "name": "transferFrom",
      "outputs": [],
      "stateMutability": "nonpayable",
      "type": "function"
    }
  ],
  "bytecode": "0x60806040523480156200001157600080fd5b5060405162001fc738038062001fc7833981810160405281019062000037919062000565565b8181620000706040516020016200004e9062000645565b604051602081830303815290604052805190602001206200024160201b60201c565b620000cf6040516020016200008590620006ac565b60405160208183030381529060405280519060200120604051602001620000ac9062000713565b60405160208183030381529060405280519060200120186200024160201b60201c565b8160019080519060200190620000e792919062000318565b5080600290805190602001906200010092919062000318565b505050620001b260405160200162000118906200077a565b604051602081830303815290604052805190602001206040516020016200013f9062000807565b6040516020818303038152906040528051906020012060405160200162000166906200086e565b604051602081830303815290604052805190602001206040516020016200018d90620008d5565b604051602081830303815290604052805190602001201818186200024160201b60201c565b62000239604051602001620001c79062000962565b60405160208183030381529060405280519060200120604051602001620001ee90620009c9565b60405160208183030381529060405280519060200120604051602001620002159062000a30565b6040516020818303038152906040528051906020012018186200024160201b60201c565b505062000b2e565b63ffffffff60e01b817bffffffffffffffffffffffffffffffffffffffffffffffffffffffff191603620002ac576040517f08c379a0000000000000000000000000000000000000000000000000000000008152600401620002a39062000aa8565b60405180910390fd5b6001600080837bffffffffffffffffffffffffffffffffffffffffffffffffffffffff19167bffffffffffffffffffffffffffffffffffffffffffffffffffffffff1916815260200190815260200160002060006101000a81548160ff02191690831515021790555050565b828054620003269062000af9565b90600052602060002090601f0160209004810192826200034a576000855562000396565b82601f106200036557805160ff191683800117855562000396565b8280016001018555821562000396579182015b828111156200039557825182559160200191906001019062000378565b5b509050620003a59190620003a9565b5090565b5b80821115620003c4576000816000905550600101620003aa565b5090565b6000604051905090565b600080fd5b600080fd5b600080fd5b600080fd5b6000601f19601f8301169050919050565b7f4e487b7100000000000000000000000000000000000000000000000000000000600052604160045260246000fd5b6200043182620003e6565b810181811067ffffffffffffffff82111715620004535762000452620003f7565b5b80604052505050565b600062000468620003c8565b905062000476828262000426565b919050565b600067ffffffffffffffff821115620004995762000498620003f7565b5b620004a482620003e6565b9050602081019050919050565b60005b83811015620004d1578082015181840152602081019050620004b4565b83811115620004e1576000848401525b50505050565b6000620004fe620004f8846200047b565b6200045c565b9050828152602081018484840111156200051d576200051c620003e1565b5b6200052a848285620004b1565b509392505050565b600082601f8301126200054a5762000549620003dc565b5b81516200055c848260208601620004e7565b91505092915050565b600080604083850312156200057f576200057e620003d2565b5b600083015167ffffffffffffffff811115620005a0576200059f620003d7565b5b620005ae8582860162000532565b925050602083015167ffffffffffffffff811115620005d257620005d1620003d7565b5b620005e08582860162000532565b9150509250929050565b600081905092915050565b7f737570706f727473496e74657266616365286279746573342900000000000000600082015250565b60006200062d601983620005ea565b91506200063a82620005f5565b601982019050919050565b600062000652826200061e565b9150819050919050565b7f73796d626f6c2829000000000000000000000000000000000000000000000000600082015250565b600062000694600883620005ea565b9150620006a1826200065c565b600882019050919050565b6000620006b98262000685565b9150819050919050565b7f6e616d6528290000000000000000000000000000000000000000000000000000600082015250565b6000620006fb600683620005ea565b91506200070882620006c3565b600682019050919050565b60006200072082620006ec565b9150819050919050565b7f617070726f766528616464726573732c75696e74290000000000000000000000600082015250565b600062000762601583620005ea565b91506200076f826200072a565b601582019050919050565b6000620007878262000753565b9150819050919050565b7f7472616e7366657246726f6d28616464726573732c616464726573732c75696e60008201527f7429000000000000000000000000000000000000000000000000000000000000602082015250565b6000620007ef602283620005ea565b9150620007fc8262000791565b602282019050919050565b60006200081482620007e0565b9150819050919050565b7f6f776e65724f662875696e742900000000000000000000000000000000000000600082015250565b600062000856600d83620005ea565b915062000863826200081e565b600d82019050919050565b60006200087b8262000847565b9150819050919050565b7f62616c616e63654f662861646472657373290000000000000000000000000000600082015250565b6000620008bd601283620005ea565b9150620008ca8262000885565b601282019050919050565b6000620008e282620008ae565b9150819050919050565b7f746f6b656e4f664f776e65724279496e64657828616464726573732c75696e7460008201527f2900000000000000000000000000000000000000000000000000000000000000602082015250565b60006200094a602183620005ea565b91506200095782620008ec565b602182019050919050565b60006200096f826200093b565b9150819050919050565b7f746f6b656e4279496e6465782875696e74290000000000000000000000000000600082015250565b6000620009b1601283620005ea565b9150620009be8262000979565b601282019050919050565b6000620009d682620009a2565b9150819050919050565b7f746f74616c537570706c79286164647265737329000000000000000000000000600082015250565b600062000a18601483620005ea565b915062000a2582620009e0565b601482019050919050565b600062000a3d8262000a09565b9150819050919050565b600082825260208201905092915050565b7f4552433136353a20496e76616c696420496e7465726661636500000000000000600082015250565b600062000a9060198362000a47565b915062000a9d8262000a58565b602082019050919050565b6000602082019050818103600083015262000ac38162000a81565b9050919050565b7f4e487b7100000000000000000000000000000000000000000000000000000000600052602260045260246000fd5b6000600282049050600182168062000b1257607f821691505b60208210810362000b285762000b2762000aca565b5b50919050565b6114898062000b3e6000396000f3fe608060405234801561001057600080fd5b506004361061009e5760003560e01c80632f745c59116100665780632f745c59146101475780634f6ccce7146101775780636352211e146101a757806370a08231146101d757806395d89b41146102075761009e565b806301ffc9a7146100a357806306fdde03146100d3578063095ea7b3146100f157806318160ddd1461010d57806323b872dd1461012b575b600080fd5b6100bd60048036038101906100b89190610b68565b610225565b6040516100ca9190610bb0565b60405180910390f35b6100db61028c565b6040516100e89190610c64565b60405180910390f35b61010b60048036038101906101069190610d1a565b61031e565b005b6101156104b9565b6040516101229190610d69565b60405180910390f35b61014560048036038101906101409190610d84565b6104c6565b005b610161600480360381019061015c9190610d1a565b61051f565b60405161016e9190610d69565b60405180910390f35b610191600480360381019061018c9190610dd7565b6105cf565b60405161019e9190610d69565b60405180910390f35b6101c160048036038101906101bc9190610dd7565b610640565b6040516101ce9190610e13565b60405180910390f35b6101f160048036038101906101ec9190610e2e565b6106c5565b6040516101fe9190610d69565b60405180910390f35b61020f61077c565b60405161021c9190610c64565b60405180910390f35b6000806000837bffffffffffffffffffffffffffffffffffffffffffffffffffffffff19167bffffffffffffffffffffffffffffffffffffffffffffffffffffffff1916815260200190815260200160002060009054906101000a900460ff169050919050565b60606001805461029b90610e8a565b80601f01602080910402602001604051908101604052809291908181526020018280546102c790610e8a565b80156103145780601f106102e957610100808354040283529160200191610314565b820191906000526020600020905b8154815290600101906020018083116102f757829003601f168201915b5050505050905090565b600061032982610640565b90508073ffffffffffffffffffffffffffffffffffffffff168373ffffffffffffffffffffffffffffffffffffffff1603610399576040517f08c379a000000000000000000000000000000000000000000000000000000000815260040161039090610f07565b60405180910390fd5b8073ffffffffffffffffffffffffffffffffffffffff163373ffffffffffffffffffffffffffffffffffffffff1614610407576040517f08c379a00000000000000000000000000000000000000000000000000000000081526004016103fe90610f99565b60405180910390fd5b826005600084815260200190815260200160002060006101000a81548173ffffffffffffffffffffffffffffffffffffffff021916908373ffffffffffffffffffffffffffffffffffffffff160217905550818373ffffffffffffffffffffffffffffffffffffffff168273ffffffffffffffffffffffffffffffffffffffff167f8c5be1e5ebec7d5bd14f71427d1e84f3dd0314c0f7b2291e5b200ac8c7c3b92560405160405180910390a4505050565b6000600680549050905090565b6104d0338261080e565b61050f576040517f08c379a000000000000000000000000000000000000000000000000000000000815260040161050690610fdf565b60405180910390fd5b61051a838383610854565b505050565b600061052a836106c5565b821061056b576040517f08c379a000000000000000000000000000000000000000000000000000000000815260040161056290611071565b60405180910390fd5b600860008473ffffffffffffffffffffffffffffffffffffffff1673ffffffffffffffffffffffffffffffffffffffff16815260200190815260200160002082815481106105bc576105bb611091565b5b9060005260206000200154905092915050565b60006105d96104b9565b821061061a576040517f08c379a000000000000000000000000000000000000000000000000000000000815260040161061190611132565b60405180910390fd5b6006828154811061062e5761062d611091565b5b90600052602060002001549050919050565b600061064b82610a99565b61068a576040517f08c379a00000000000000000000000000000000000000000000000000000000081526004016106819061119e565b60405180910390fd5b6003600083815260200190815260200160002060009054906101000a900473ffffffffffffffffffffffffffffffffffffffff169050919050565b60008073ffffffffffffffffffffffffffffffffffffffff168273ffffffffffffffffffffffffffffffffffffffff1603610735576040517f08c379a000000000000000000000000000000000000000000000000000000000815260040161072c90611230565b60405180910390fd5b600460008373ffffffffffffffffffffffffffffffffffffffff1673ffffffffffffffffffffffffffffffffffffffff168152602001908152602001600020549050919050565b60606002805461078b90610e8a565b80601f01602080910402602001604051908101604052809291908181526020018280546107b790610e8a565b80156108045780601f106107d957610100808354040283529160200191610804565b820191906000526020600020905b8154815290600101906020018083116107e757829003601f168201915b5050505050905090565b60008061081a83610640565b90508073ffffffffffffffffffffffffffffffffffffffff168473ffffffffffffffffffffffffffffffffffffffff161491505092915050565b600073ffffffffffffffffffffffffffffffffffffffff168273ffffffffffffffffffffffffffffffffffffffff16036108c3576040517f08c379a00000000000000000000000000000000000000000000000000000000081526004016108ba906112c2565b60405180910390fd5b8273ffffffffffffffffffffffffffffffffffffffff166108e382610640565b73ffffffffffffffffffffffffffffffffffffffff1614610939576040517f08c379a00000000000000000000000000000000000000000000000000000000081526004016109309061137a565b60405180910390fd5b816003600083815260200190815260200160002060006101000a81548173ffffffffffffffffffffffffffffffffffffffff021916908373ffffffffffffffffffffffffffffffffffffffff1602179055506001600460008573ffffffffffffffffffffffffffffffffffffffff1673ffffffffffffffffffffffffffffffffffffffff16815260200190815260200160002060008282546109db91906113c9565b925050819055506001600460008473ffffffffffffffffffffffffffffffffffffffff1673ffffffffffffffffffffffffffffffffffffffff1681526020019081526020016000206000828254610a3291906113fd565b92505081905550808273ffffffffffffffffffffffffffffffffffffffff168473ffffffffffffffffffffffffffffffffffffffff167fddf252ad1be2c89b69c2b068fc378daa952ba7f163c4a11628f55a4df523b3ef60405160405180910390a4505050565b6000806003600084815260200190815260200160002060009054906101000a900473ffffffffffffffffffffffffffffffffffffffff169050600073ffffffffffffffffffffffffffffffffffffffff168173ffffffffffffffffffffffffffffffffffffffff161415915050919050565b600080fd5b60007fffffffff0000000000000000000000000000000000000000000000000000000082169050919050565b610b4581610b10565b8114610b5057600080fd5b50565b600081359050610b6281610b3c565b92915050565b600060208284031215610b7e57610b7d610b0b565b5b6000610b8c84828501610b53565b91505092915050565b60008115159050919050565b610baa81610b95565b82525050565b6000602082019050610bc56000830184610ba1565b92915050565b600081519050919050565b600082825260208201905092915050565b60005b83811015610c05578082015181840152602081019050610bea565b83811115610c14576000848401525b50505050565b6000601f19601f8301169050919050565b6000610c3682610bcb565b610c408185610bd6565b9350610c50818560208601610be7565b610c5981610c1a565b840191505092915050565b60006020820190508181036000830152610c7e8184610c2b565b905092915050565b600073ffffffffffffffffffffffffffffffffffffffff82169050919050565b6000610cb182610c86565b9050919050565b610cc181610ca6565b8114610ccc57600080fd5b50565b600081359050610cde81610cb8565b92915050565b6000819050919050565b610cf781610ce4565b8114610d0257600080fd5b50565b600081359050610d1481610cee565b92915050565b60008060408385031215610d3157610d30610b0b565b5b6000610d3f85828601610ccf565b9250506020610d5085828601610d05565b9150509250929050565b610d6381610ce4565b82525050565b6000602082019050610d7e6000830184610d5a565b92915050565b600080600060608486031215610d9d57610d9c610b0b565b5b6000610dab86828701610ccf565b9350506020610dbc86828701610ccf565b9250506040610dcd86828701610d05565b9150509250925092565b600060208284031215610ded57610dec610b0b565b5b6000610dfb84828501610d05565b91505092915050565b610e0d81610ca6565b82525050565b6000602082019050610e286000830184610e04565b92915050565b600060208284031215610e4457610e43610b0b565b5b6000610e5284828501610ccf565b91505092915050565b7f4e487b7100000000000000000000000000000000000000000000000000000000600052602260045260246000fd5b60006002820490506001821680610ea257607f821691505b602082108103610eb557610eb4610e5b565b5b50919050565b7f455243373231202d20417070726f76616c20746f206f776e6572000000000000600082015250565b6000610ef1601a83610bd6565b9150610efc82610ebb565b602082019050919050565b60006020820190508181036000830152610f2081610ee4565b9050919050565b7f455243373231202d2043757272656e742063616c6c6572206973206e6f74207460008201527f6865206f776e6572206f662074686520746f6b656e0000000000000000000000602082015250565b6000610f83603583610bd6565b9150610f8e82610f27565b604082019050919050565b60006020820190508181036000830152610fb281610f76565b9050919050565b50565b6000610fc9600083610bd6565b9150610fd482610fb9565b600082019050919050565b60006020820190508181036000830152610ff881610fbc565b9050919050565b7f455243373231456e756d657261626c653a204f776e657220696e64657820697360008201527f206f7574206f6620626f756e6473210000000000000000000000000000000000602082015250565b600061105b602f83610bd6565b915061106682610fff565b604082019050919050565b6000602082019050818103600083015261108a8161104e565b9050919050565b7f4e487b7100000000000000000000000000000000000000000000000000000000600052603260045260246000fd5b7f455243373231456e756d657261626c653a20476c6f62616c20696e646578206960008201527f73206f7574206f6620626f756e64732100000000000000000000000000000000602082015250565b600061111c603083610bd6565b9150611127826110c0565b604082019050919050565b6000602082019050818103600083015261114b8161110f565b9050919050565b7f4552433732313a20746f6b656e20646f6573206e6f7420657869737400000000600082015250565b6000611188601c83610bd6565b915061119382611152565b602082019050919050565b600060208201905081810360008301526111b78161117b565b9050919050565b7f4552433732313a204f776e657220717565727920666f72206e6f6e2d6578697360008201527f74656e7420746f6b656e00000000000000000000000000000000000000000000602082015250565b600061121a602a83610bd6565b9150611225826111be565b604082019050919050565b600060208201905081810360008301526112498161120d565b9050919050565b7f4552433732313a205472616e7366657220746f20746865207a65726f2061646460008201527f7265737300000000000000000000000000000000000000000000000000000000602082015250565b60006112ac602483610bd6565b91506112b782611250565b604082019050919050565b600060208201905081810360008301526112db8161129f565b9050919050565b7f4552433732313a20547279696e6720746f207472616e73666572206120746f6b60008201527f656e206e6f74206f776e65642062792074686520726967687466756c206f776e60208201527f6572210000000000000000000000000000000000000000000000000000000000604082015250565b6000611364604383610bd6565b915061136f826112e2565b606082019050919050565b6000602082019050818103600083015261139381611357565b9050919050565b7f4e487b7100000000000000000000000000000000000000000000000000000000600052601160045260246000fd5b60006113d482610ce4565b91506113df83610ce4565b9250828210156113f2576113f161139a565b5b828203905092915050565b600061140882610ce4565b915061141383610ce4565b9250827fffffffffffffffffffffffffffffffffffffffffffffffffffffffffffffffff038211156114485761144761139a565b5b82820190509291505056fea26469706673582212207c3c34f4af9f7119eea506ad07ec22fab31954c51b0c73a5ffff8f61548c3fb964736f6c634300080d0033",
  "immutableReferences": {},
  "source": "// SPDX-License-Identifier: MIT\npragma solidity ^0.8.11;\n\nimport './ERC721Metadata.sol';\nimport './ERC721Enumerable.sol';\n\ncontract ERC721Connector is ERC721Metadata, ERC721Enumerable {\n\n    constructor(string memory name, string memory symbol) ERC721Metadata(name, symbol) {}\n}",
  "sourcePath": "/Users/aposhukl/Documents/Apoorva/BlockChain/NFTS/cryptobird/contracts/ERC721Connector.sol",
  "compiler": {
    "name": "solc",
    "version": "0.8.13+commit.abaa5c0e.Emscripten.clang"
  },
  "schemaVersion": "3.4.5",
  "updatedAt": "2022-04-16T03:07:29.808Z",
  "devdoc": {
    "kind": "dev",
    "methods": {
      "balanceOf(address)": {
        "details": "NFTs assigned to the zero address are considered invalid, and this  function throws for queries about the zero address.",
        "params": {
          "_owner": "An address for whom to query the balance"
        },
        "returns": {
          "_0": "The number of NFTs owned by `_owner`, possibly zero"
        }
      },
      "ownerOf(uint256)": {
        "details": "NFTs assigned to zero address are considered invalid, and queries  about them do throw.",
        "params": {
          "_tokenId": "The identifier for an NFT"
        },
        "returns": {
          "_0": "The address of the owner of the NFT"
        }
      },
      "supportsInterface(bytes4)": {
        "details": "Interface identification is specified in ERC-165. This function  uses less than 30,000 gas.",
        "params": {
          "interfaceID": "The interface identifier, as specified in ERC-165"
        },
        "returns": {
          "_0": "`true` if the contract implements `interfaceID` and  `interfaceID` is not 0xffffffff, `false` otherwise"
        }
      },
      "totalSupply()": {
        "returns": {
          "_0": "A count of valid NFTs tracked by this contract, where each one of  them has an assigned and queryable owner not equal to the zero address"
        }
      }
    },
    "version": 1
  },
  "userdoc": {
    "kind": "user",
    "methods": {
      "balanceOf(address)": {
        "notice": "Count all NFTs assigned to an owner"
      },
      "ownerOf(uint256)": {
        "notice": "Find the owner of an NFT"
      },
      "supportsInterface(bytes4)": {
        "notice": "Query if a contract implements an interface"
      },
      "totalSupply()": {
        "notice": "Count NFTs tracked by this contract"
      }
    },
    "version": 1
  }
}