{
  "contractName": "KryptoBird",
  "abi": [
    {
      "inputs": [],
      "stateMutability": "nonpayable",
      "type": "constructor"
    },
    {
      "anonymous": false,
      "inputs": [
        {
          "indexed": true,
          "internalType": "address",
          "name": "_owner",
          "type": "address"
        },
        {
          "indexed": true,
          "internalType": "address",
          "name": "_approved",
          "type": "address"
        },
        {
          "indexed": true,
          "internalType": "uint256",
          "name": "_tokenId",
          "type": "uint256"
        }
      ],
      "name": "Approval",
      "type": "event"
    },
    {
      "anonymous": false,
      "inputs": [
        {
          "indexed": true,
          "internalType": "address",
          "name": "_from",
          "type": "address"
        },
        {
          "indexed": true,
          "internalType": "address",
          "name": "_to",
          "type": "address"
        },
        {
          "indexed": true,
          "internalType": "uint256",
          "name": "_tokenId",
          "type": "uint256"
        }
      ],
      "name": "Transfer",
      "type": "event"
    },
    {
      "inputs": [
        {
          "internalType": "address",
          "name": "_to",
          "type": "address"
        },
        {
          "internalType": "uint256",
          "name": "_tokenId",
          "type": "uint256"
        }
      ],
      "name": "approve",
      "outputs": [],
      "stateMutability": "nonpayable",
      "type": "function"
    },
    {
      "inputs": [
        {
          "internalType": "address",
          "name": "_owner",
          "type": "address"
        }
      ],
      "name": "balanceOf",
      "outputs": [
        {
          "internalType": "uint256",
          "name": "",
          "type": "uint256"
        }
      ],
      "stateMutability": "view",
      "type": "function",
      "constant": true
    },
    {
      "inputs": [],
      "name": "name",
      "outputs": [
        {
          "internalType": "string",
          "name": "",
          "type": "string"
        }
      ],
      "stateMutability": "view",
      "type": "function",
      "constant": true
    },
    {
      "inputs": [
        {
          "internalType": "uint256",
          "name": "_tokenId",
          "type": "uint256"
        }
      ],
      "name": "ownerOf",
      "outputs": [
        {
          "internalType": "address",
          "name": "",
          "type": "address"
        }
      ],
      "stateMutability": "view",
      "type": "function",
      "constant": true
    },
    {
      "inputs": [
        {
          "internalType": "bytes4",
          "name": "interfaceID",
          "type": "bytes4"
        }
      ],
      "name": "supportsInterface",
      "outputs": [
        {
          "internalType": "bool",
          "name": "",
          "type": "bool"
        }
      ],
      "stateMutability": "view",
      "type": "function",
      "constant": true
    },
    {
      "inputs": [],
      "name": "symbol",
      "outputs": [
        {
          "internalType": "string",
          "name": "",
          "type": "string"
        }
      ],
      "stateMutability": "view",
      "type": "function",
      "constant": true
    },
    {
      "inputs": [
        {
          "internalType": "uint256",
          "name": "index",
          "type": "uint256"
        }
      ],
      "name": "tokenByIndex",
      "outputs": [
        {
          "internalType": "uint256",
          "name": "",
          "type": "uint256"
        }
      ],
      "stateMutability": "view",
      "type": "function",
      "constant": true
    },
    {
      "inputs": [
        {
          "internalType": "address",
          "name": "owner",
          "type": "address"
        },
        {
          "internalType": "uint256",
          "name": "index",
          "type": "uint256"
        }
      ],
      "name": "tokenOfOwnerByIndex",
      "outputs": [
        {
          "internalType": "uint256",
          "name": "",
          "type": "uint256"
        }
      ],
      "stateMutability": "view",
      "type": "function",
      "constant": true
    },
    {
      "inputs": [],
      "name": "totalSupply",
      "outputs": [
        {
          "internalType": "uint256",
          "name": "",
          "type": "uint256"
        }
      ],
      "stateMutability": "view",
      "type": "function",
      "constant": true
    },
    {
      "inputs": [
        {
          "internalType": "address",
          "name": "_from",
          "type": "address"
        },
        {
          "internalType": "address",
          "name": "_to",
          "type": "address"
        },
        {
          "internalType": "uint256",
          "name": "_tokenId",
          "type": "uint256"
        }
      ],
      "name": "transferFrom",
      "outputs": [],
      "stateMutability": "nonpayable",
      "type": "function"
    },
    {
      "inputs": [
        {
          "internalType": "string",
          "name": "_kryptoBird",
          "type": "string"
        }
      ],
      "name": "mint",
      "outputs": [],
      "stateMutability": "nonpayable",
      "type": "function"
    },
    {
      "inputs": [],
      "name": "getKrytoBirdz",
      "outputs": [
        {
          "internalType": "string[]",
          "name": "",
          "type": "string[]"
        }
      ],
      "stateMutability": "view",
      "type": "function",
      "constant": true
    },
    {
      "inputs": [],
      "name": "getKrytoBirdzCount",
      "outputs": [
        {
          "internalType": "uint256",
          "name": "",
          "type": "uint256"
        }
      ],
      "stateMutability": "view",
      "type": "function",
      "constant": true
    }
  ],
  "bytecode": "0x60806040523480156200001157600080fd5b506040518060400160405280600a81526020017f4b727970746f62697264000000000000000000000000000000000000000000008152506040518060400160405280600681526020017f4b424952445a00000000000000000000000000000000000000000000000000008152508181620000b760405160200162000095906200046a565b604051602081830303815290604052805190602001206200028860201b60201c565b62000116604051602001620000cc90620004d1565b60405160208183030381529060405280519060200120604051602001620000f39062000538565b60405160208183030381529060405280519060200120186200028860201b60201c565b81600190805190602001906200012e9291906200035f565b508060029080519060200190620001479291906200035f565b505050620001f96040516020016200015f906200059f565b6040516020818303038152906040528051906020012060405160200162000186906200062c565b60405160208183030381529060405280519060200120604051602001620001ad9062000693565b60405160208183030381529060405280519060200120604051602001620001d490620006fa565b604051602081830303815290604052805190602001201818186200028860201b60201c565b620002806040516020016200020e9062000787565b604051602081830303815290604052805190602001206040516020016200023590620007ee565b604051602081830303815290604052805190602001206040516020016200025c9062000855565b6040516020818303038152906040528051906020012018186200028860201b60201c565b505062000953565b63ffffffff60e01b817bffffffffffffffffffffffffffffffffffffffffffffffffffffffff191603620002f3576040517f08c379a0000000000000000000000000000000000000000000000000000000008152600401620002ea90620008cd565b60405180910390fd5b6001600080837bffffffffffffffffffffffffffffffffffffffffffffffffffffffff19167bffffffffffffffffffffffffffffffffffffffffffffffffffffffff1916815260200190815260200160002060006101000a81548160ff02191690831515021790555050565b8280546200036d906200091e565b90600052602060002090601f016020900481019282620003915760008555620003dd565b82601f10620003ac57805160ff1916838001178555620003dd565b82800160010185558215620003dd579182015b82811115620003dc578251825591602001919060010190620003bf565b5b509050620003ec9190620003f0565b5090565b5b808211156200040b576000816000905550600101620003f1565b5090565b600081905092915050565b7f737570706f727473496e74657266616365286279746573342900000000000000600082015250565b6000620004526019836200040f565b91506200045f826200041a565b601982019050919050565b6000620004778262000443565b9150819050919050565b7f73796d626f6c2829000000000000000000000000000000000000000000000000600082015250565b6000620004b96008836200040f565b9150620004c68262000481565b600882019050919050565b6000620004de82620004aa565b9150819050919050565b7f6e616d6528290000000000000000000000000000000000000000000000000000600082015250565b6000620005206006836200040f565b91506200052d82620004e8565b600682019050919050565b6000620005458262000511565b9150819050919050565b7f617070726f766528616464726573732c75696e74290000000000000000000000600082015250565b6000620005876015836200040f565b915062000594826200054f565b601582019050919050565b6000620005ac8262000578565b9150819050919050565b7f7472616e7366657246726f6d28616464726573732c616464726573732c75696e60008201527f7429000000000000000000000000000000000000000000000000000000000000602082015250565b6000620006146022836200040f565b91506200062182620005b6565b602282019050919050565b6000620006398262000605565b9150819050919050565b7f6f776e65724f662875696e742900000000000000000000000000000000000000600082015250565b60006200067b600d836200040f565b9150620006888262000643565b600d82019050919050565b6000620006a0826200066c565b9150819050919050565b7f62616c616e63654f662861646472657373290000000000000000000000000000600082015250565b6000620006e26012836200040f565b9150620006ef82620006aa565b601282019050919050565b60006200070782620006d3565b9150819050919050565b7f746f6b656e4f664f776e65724279496e64657828616464726573732c75696e7460008201527f2900000000000000000000000000000000000000000000000000000000000000602082015250565b60006200076f6021836200040f565b91506200077c8262000711565b602182019050919050565b6000620007948262000760565b9150819050919050565b7f746f6b656e4279496e6465782875696e74290000000000000000000000000000600082015250565b6000620007d66012836200040f565b9150620007e3826200079e565b601282019050919050565b6000620007fb82620007c7565b9150819050919050565b7f746f74616c537570706c79286164647265737329000000000000000000000000600082015250565b60006200083d6014836200040f565b91506200084a8262000805565b601482019050919050565b600062000862826200082e565b9150819050919050565b600082825260208201905092915050565b7f4552433136353a20496e76616c696420496e7465726661636500000000000000600082015250565b6000620008b56019836200086c565b9150620008c2826200087d565b602082019050919050565b60006020820190508181036000830152620008e881620008a6565b9050919050565b7f4e487b7100000000000000000000000000000000000000000000000000000000600052602260045260246000fd5b600060028204905060018216806200093757607f821691505b6020821081036200094d576200094c620008ef565b5b50919050565b611f2b80620009636000396000f3fe608060405234801561001057600080fd5b50600436106100cf5760003560e01c80634150312c1161008c57806370a082311161006657806370a082311461022657806374db089f1461025657806395d89b4114610274578063d85d3d2714610292576100cf565b80634150312c146101a85780634f6ccce7146101c65780636352211e146101f6576100cf565b806301ffc9a7146100d457806306fdde0314610104578063095ea7b31461012257806318160ddd1461013e57806323b872dd1461015c5780632f745c5914610178575b600080fd5b6100ee60048036038101906100e9919061117b565b6102ae565b6040516100fb91906111c3565b60405180910390f35b61010c610315565b6040516101199190611277565b60405180910390f35b61013c6004803603810190610137919061132d565b6103a7565b005b610146610542565b604051610153919061137c565b60405180910390f35b61017660048036038101906101719190611397565b61054f565b005b610192600480360381019061018d919061132d565b6105a8565b60405161019f919061137c565b60405180910390f35b6101b0610658565b6040516101bd919061137c565b60405180910390f35b6101e060048036038101906101db91906113ea565b610665565b6040516101ed919061137c565b60405180910390f35b610210600480360381019061020b91906113ea565b6106d6565b60405161021d9190611426565b60405180910390f35b610240600480360381019061023b9190611441565b61075b565b60405161024d919061137c565b60405180910390f35b61025e610812565b60405161026b919061157a565b60405180910390f35b61027c6108eb565b6040516102899190611277565b60405180910390f35b6102ac60048036038101906102a791906116d1565b61097d565b005b6000806000837bffffffffffffffffffffffffffffffffffffffffffffffffffffffff19167bffffffffffffffffffffffffffffffffffffffffffffffffffffffff1916815260200190815260200160002060009054906101000a900460ff169050919050565b60606001805461032490611749565b80601f016020809104026020016040519081016040528092919081815260200182805461035090611749565b801561039d5780601f106103725761010080835404028352916020019161039d565b820191906000526020600020905b81548152906001019060200180831161038057829003601f168201915b5050505050905090565b60006103b2826106d6565b90508073ffffffffffffffffffffffffffffffffffffffff168373ffffffffffffffffffffffffffffffffffffffff1603610422576040517f08c379a0000000000000000000000000000000000000000000000000000000008152600401610419906117c6565b60405180910390fd5b8073ffffffffffffffffffffffffffffffffffffffff163373ffffffffffffffffffffffffffffffffffffffff1614610490576040517f08c379a000000000000000000000000000000000000000000000000000000000815260040161048790611858565b60405180910390fd5b826005600084815260200190815260200160002060006101000a81548173ffffffffffffffffffffffffffffffffffffffff021916908373ffffffffffffffffffffffffffffffffffffffff160217905550818373ffffffffffffffffffffffffffffffffffffffff168273ffffffffffffffffffffffffffffffffffffffff167f8c5be1e5ebec7d5bd14f71427d1e84f3dd0314c0f7b2291e5b200ac8c7c3b92560405160405180910390a4505050565b6000600680549050905090565b6105593382610a80565b610598576040517f08c379a000000000000000000000000000000000000000000000000000000000815260040161058f9061189e565b60405180910390fd5b6105a3838383610ac6565b505050565b60006105b38361075b565b82106105f4576040517f08c379a00000000000000000000000000000000000000000000000000000000081526004016105eb90611930565b60405180910390fd5b600860008473ffffffffffffffffffffffffffffffffffffffff1673ffffffffffffffffffffffffffffffffffffffff168152602001908152602001600020828154811061064557610644611950565b5b9060005260206000200154905092915050565b6000600a80549050905090565b600061066f610542565b82106106b0576040517f08c379a00000000000000000000000000000000000000000000000000000000081526004016106a7906119f1565b60405180910390fd5b600682815481106106c4576106c3611950565b5b90600052602060002001549050919050565b60006106e182610d0b565b610720576040517f08c379a000000000000000000000000000000000000000000000000000000000815260040161071790611a5d565b60405180910390fd5b6003600083815260200190815260200160002060009054906101000a900473ffffffffffffffffffffffffffffffffffffffff169050919050565b60008073ffffffffffffffffffffffffffffffffffffffff168273ffffffffffffffffffffffffffffffffffffffff16036107cb576040517f08c379a00000000000000000000000000000000000000000000000000000000081526004016107c290611aef565b60405180910390fd5b600460008373ffffffffffffffffffffffffffffffffffffffff1673ffffffffffffffffffffffffffffffffffffffff168152602001908152602001600020549050919050565b6060600a805480602002602001604051908101604052809291908181526020016000905b828210156108e257838290600052602060002001805461085590611749565b80601f016020809104026020016040519081016040528092919081815260200182805461088190611749565b80156108ce5780601f106108a3576101008083540402835291602001916108ce565b820191906000526020600020905b8154815290600101906020018083116108b157829003601f168201915b505050505081526020019060010190610836565b50505050905090565b6060600280546108fa90611749565b80601f016020809104026020016040519081016040528092919081815260200182805461092690611749565b80156109735780601f1061094857610100808354040283529160200191610973565b820191906000526020600020905b81548152906001019060200180831161095657829003601f168201915b5050505050905090565b600b8160405161098d9190611b4b565b908152602001604051809103902060009054906101000a900460ff16156109e9576040517f08c379a00000000000000000000000000000000000000000000000000000000081526004016109e090611bd4565b60405180910390fd5b600a81908060018154018082558091505060019003906000526020600020016000909190919091509080519060200190610a2492919061106c565b5060006001600a80549050610a399190611c23565b9050610a453382610d7d565b6001600b83604051610a579190611b4b565b908152602001604051809103902060006101000a81548160ff0219169083151502179055505050565b600080610a8c836106d6565b90508073ffffffffffffffffffffffffffffffffffffffff168473ffffffffffffffffffffffffffffffffffffffff161491505092915050565b600073ffffffffffffffffffffffffffffffffffffffff168273ffffffffffffffffffffffffffffffffffffffff1603610b35576040517f08c379a0000000000000000000000000000000000000000000000000000000008152600401610b2c90611cc9565b60405180910390fd5b8273ffffffffffffffffffffffffffffffffffffffff16610b55826106d6565b73ffffffffffffffffffffffffffffffffffffffff1614610bab576040517f08c379a0000000000000000000000000000000000000000000000000000000008152600401610ba290611d81565b60405180910390fd5b816003600083815260200190815260200160002060006101000a81548173ffffffffffffffffffffffffffffffffffffffff021916908373ffffffffffffffffffffffffffffffffffffffff1602179055506001600460008573ffffffffffffffffffffffffffffffffffffffff1673ffffffffffffffffffffffffffffffffffffffff1681526020019081526020016000206000828254610c4d9190611c23565b925050819055506001600460008473ffffffffffffffffffffffffffffffffffffffff1673ffffffffffffffffffffffffffffffffffffffff1681526020019081526020016000206000828254610ca49190611da1565b92505081905550808273ffffffffffffffffffffffffffffffffffffffff168473ffffffffffffffffffffffffffffffffffffffff167fddf252ad1be2c89b69c2b068fc378daa952ba7f163c4a11628f55a4df523b3ef60405160405180910390a4505050565b6000806003600084815260200190815260200160002060009054906101000a900473ffffffffffffffffffffffffffffffffffffffff169050600073ffffffffffffffffffffffffffffffffffffffff168173ffffffffffffffffffffffffffffffffffffffff161415915050919050565b610d878282610d9e565b610d9081610f5f565b610d9a8282610fa8565b5050565b600073ffffffffffffffffffffffffffffffffffffffff168273ffffffffffffffffffffffffffffffffffffffff1603610e0d576040517f08c379a0000000000000000000000000000000000000000000000000000000008152600401610e0490611e69565b60405180910390fd5b610e1681610d0b565b15610e56576040517f08c379a0000000000000000000000000000000000000000000000000000000008152600401610e4d90611ed5565b60405180910390fd5b816003600083815260200190815260200160002060006101000a81548173ffffffffffffffffffffffffffffffffffffffff021916908373ffffffffffffffffffffffffffffffffffffffff1602179055506001600460008473ffffffffffffffffffffffffffffffffffffffff1673ffffffffffffffffffffffffffffffffffffffff1681526020019081526020016000206000828254610ef89190611da1565b92505081905550808273ffffffffffffffffffffffffffffffffffffffff16600073ffffffffffffffffffffffffffffffffffffffff167fddf252ad1be2c89b69c2b068fc378daa952ba7f163c4a11628f55a4df523b3ef60405160405180910390a45050565b6006805490506007600083815260200190815260200160002081905550600681908060018154018082558091505060019003906000526020600020016000909190919091505550565b600860008373ffffffffffffffffffffffffffffffffffffffff1673ffffffffffffffffffffffffffffffffffffffff168152602001908152602001600020805490506009600083815260200190815260200160002081905550600860008373ffffffffffffffffffffffffffffffffffffffff1673ffffffffffffffffffffffffffffffffffffffff1681526020019081526020016000208190806001815401808255809150506001900390600052602060002001600090919091909150555050565b82805461107890611749565b90600052602060002090601f01602090048101928261109a57600085556110e1565b82601f106110b357805160ff19168380011785556110e1565b828001600101855582156110e1579182015b828111156110e05782518255916020019190600101906110c5565b5b5090506110ee91906110f2565b5090565b5b8082111561110b5760008160009055506001016110f3565b5090565b6000604051905090565b600080fd5b600080fd5b60007fffffffff0000000000000000000000000000000000000000000000000000000082169050919050565b61115881611123565b811461116357600080fd5b50565b6000813590506111758161114f565b92915050565b60006020828403121561119157611190611119565b5b600061119f84828501611166565b91505092915050565b60008115159050919050565b6111bd816111a8565b82525050565b60006020820190506111d860008301846111b4565b92915050565b600081519050919050565b600082825260208201905092915050565b60005b838110156112185780820151818401526020810190506111fd565b83811115611227576000848401525b50505050565b6000601f19601f8301169050919050565b6000611249826111de565b61125381856111e9565b93506112638185602086016111fa565b61126c8161122d565b840191505092915050565b60006020820190508181036000830152611291818461123e565b905092915050565b600073ffffffffffffffffffffffffffffffffffffffff82169050919050565b60006112c482611299565b9050919050565b6112d4816112b9565b81146112df57600080fd5b50565b6000813590506112f1816112cb565b92915050565b6000819050919050565b61130a816112f7565b811461131557600080fd5b50565b60008135905061132781611301565b92915050565b6000806040838503121561134457611343611119565b5b6000611352858286016112e2565b925050602061136385828601611318565b9150509250929050565b611376816112f7565b82525050565b6000602082019050611391600083018461136d565b92915050565b6000806000606084860312156113b0576113af611119565b5b60006113be868287016112e2565b93505060206113cf868287016112e2565b92505060406113e086828701611318565b9150509250925092565b600060208284031215611400576113ff611119565b5b600061140e84828501611318565b91505092915050565b611420816112b9565b82525050565b600060208201905061143b6000830184611417565b92915050565b60006020828403121561145757611456611119565b5b6000611465848285016112e2565b91505092915050565b600081519050919050565b600082825260208201905092915050565b6000819050602082019050919050565b600082825260208201905092915050565b60006114b6826111de565b6114c0818561149a565b93506114d08185602086016111fa565b6114d98161122d565b840191505092915050565b60006114f083836114ab565b905092915050565b6000602082019050919050565b60006115108261146e565b61151a8185611479565b93508360208202850161152c8561148a565b8060005b85811015611568578484038952815161154985826114e4565b9450611554836114f8565b925060208a01995050600181019050611530565b50829750879550505050505092915050565b600060208201905081810360008301526115948184611505565b905092915050565b600080fd5b600080fd5b7f4e487b7100000000000000000000000000000000000000000000000000000000600052604160045260246000fd5b6115de8261122d565b810181811067ffffffffffffffff821117156115fd576115fc6115a6565b5b80604052505050565b600061161061110f565b905061161c82826115d5565b919050565b600067ffffffffffffffff82111561163c5761163b6115a6565b5b6116458261122d565b9050602081019050919050565b82818337600083830152505050565b600061167461166f84611621565b611606565b9050828152602081018484840111156116905761168f6115a1565b5b61169b848285611652565b509392505050565b600082601f8301126116b8576116b761159c565b5b81356116c8848260208601611661565b91505092915050565b6000602082840312156116e7576116e6611119565b5b600082013567ffffffffffffffff8111156117055761170461111e565b5b611711848285016116a3565b91505092915050565b7f4e487b7100000000000000000000000000000000000000000000000000000000600052602260045260246000fd5b6000600282049050600182168061176157607f821691505b6020821081036117745761177361171a565b5b50919050565b7f455243373231202d20417070726f76616c20746f206f776e6572000000000000600082015250565b60006117b0601a836111e9565b91506117bb8261177a565b602082019050919050565b600060208201905081810360008301526117df816117a3565b9050919050565b7f455243373231202d2043757272656e742063616c6c6572206973206e6f74207460008201527f6865206f776e6572206f662074686520746f6b656e0000000000000000000000602082015250565b60006118426035836111e9565b915061184d826117e6565b604082019050919050565b6000602082019050818103600083015261187181611835565b9050919050565b50565b60006118886000836111e9565b915061189382611878565b600082019050919050565b600060208201905081810360008301526118b78161187b565b9050919050565b7f455243373231456e756d657261626c653a204f776e657220696e64657820697360008201527f206f7574206f6620626f756e6473210000000000000000000000000000000000602082015250565b600061191a602f836111e9565b9150611925826118be565b604082019050919050565b600060208201905081810360008301526119498161190d565b9050919050565b7f4e487b7100000000000000000000000000000000000000000000000000000000600052603260045260246000fd5b7f455243373231456e756d657261626c653a20476c6f62616c20696e646578206960008201527f73206f7574206f6620626f756e64732100000000000000000000000000000000602082015250565b60006119db6030836111e9565b91506119e68261197f565b604082019050919050565b60006020820190508181036000830152611a0a816119ce565b9050919050565b7f4552433732313a20746f6b656e20646f6573206e6f7420657869737400000000600082015250565b6000611a47601c836111e9565b9150611a5282611a11565b602082019050919050565b60006020820190508181036000830152611a7681611a3a565b9050919050565b7f4552433732313a204f776e657220717565727920666f72206e6f6e2d6578697360008201527f74656e7420746f6b656e00000000000000000000000000000000000000000000602082015250565b6000611ad9602a836111e9565b9150611ae482611a7d565b604082019050919050565b60006020820190508181036000830152611b0881611acc565b9050919050565b600081905092915050565b6000611b25826111de565b611b2f8185611b0f565b9350611b3f8185602086016111fa565b80840191505092915050565b6000611b578284611b1a565b915081905092915050565b7f4572726f72202d204b727970746f6269726420616c726561647920657869737460008201527f7300000000000000000000000000000000000000000000000000000000000000602082015250565b6000611bbe6021836111e9565b9150611bc982611b62565b604082019050919050565b60006020820190508181036000830152611bed81611bb1565b9050919050565b7f4e487b7100000000000000000000000000000000000000000000000000000000600052601160045260246000fd5b6000611c2e826112f7565b9150611c39836112f7565b925082821015611c4c57611c4b611bf4565b5b828203905092915050565b7f4552433732313a205472616e7366657220746f20746865207a65726f2061646460008201527f7265737300000000000000000000000000000000000000000000000000000000602082015250565b6000611cb36024836111e9565b9150611cbe82611c57565b604082019050919050565b60006020820190508181036000830152611ce281611ca6565b9050919050565b7f4552433732313a20547279696e6720746f207472616e73666572206120746f6b60008201527f656e206e6f74206f776e65642062792074686520726967687466756c206f776e60208201527f6572210000000000000000000000000000000000000000000000000000000000604082015250565b6000611d6b6043836111e9565b9150611d7682611ce9565b606082019050919050565b60006020820190508181036000830152611d9a81611d5e565b9050919050565b6000611dac826112f7565b9150611db7836112f7565b9250827fffffffffffffffffffffffffffffffffffffffffffffffffffffffffffffffff03821115611dec57611deb611bf4565b5b828201905092915050565b7f4552433732313a206d696e74696e6720746f20746865207a65726f206164647260008201527f6573730000000000000000000000000000000000000000000000000000000000602082015250565b6000611e536023836111e9565b9150611e5e82611df7565b604082019050919050565b60006020820190508181036000830152611e8281611e46565b9050919050565b7f4552433732313a20746f6b656e20616c7265616479206d696e74656400000000600082015250565b6000611ebf601c836111e9565b9150611eca82611e89565b602082019050919050565b60006020820190508181036000830152611eee81611eb2565b905091905056fea26469706673582212207b63d60cd8735af191fd016a0c1ec4494e702a6f730ebb7ca5fcd52e003fe3a664736f6c634300080d0033",
  "immutableReferences": {},
  "source": "// SPDX-License-Identifier: MIT\npragma solidity ^0.8.11;\n\nimport './ERC721Connector.sol';\n\ncontract KryptoBird is ERC721Connector {\n\n    // array to store our nft's\n    string[] private kryptoBirdz;\n\n    mapping(string => bool) _kryptoBirdzExists;\n\n    function mint(string memory _kryptoBird) public {\n        require(!_kryptoBirdzExists[_kryptoBird], \"Error - Kryptobird already exists\");\n        kryptoBirdz.push(_kryptoBird);\n        uint _uid = kryptoBirdz.length - 1;\n\n        _mint(msg.sender, _uid);\n\n        _kryptoBirdzExists[_kryptoBird] = true;\n    }\n\n    function getKrytoBirdz() external view returns (string[] memory) {\n        return kryptoBirdz;\n    }\n\n    function getKrytoBirdzCount() external view returns (uint) {\n        return kryptoBirdz.length;\n    }\n    constructor() ERC721Connector('Kryptobird', 'KBIRDZ') {}\n}",
  "sourcePath": "/Users/aposhukl/Documents/Apoorva/BlockChain/NFTS/cryptobird/contracts/KryptoBird.sol",
  "compiler": {
    "name": "solc",
    "version": "0.8.13+commit.abaa5c0e.Emscripten.clang"
  },
  "schemaVersion": "3.4.5",
  "updatedAt": "2022-04-19T03:15:53.770Z",
  "networkType": "ethereum",
  "devdoc": {
    "kind": "dev",
    "methods": {
      "balanceOf(address)": {
        "details": "NFTs assigned to the zero address are considered invalid, and this  function throws for queries about the zero address.",
        "params": {
          "_owner": "An address for whom to query the balance"
        },
        "returns": {
          "_0": "The number of NFTs owned by `_owner`, possibly zero"
        }
      },
      "ownerOf(uint256)": {
        "details": "NFTs assigned to zero address are considered invalid, and queries  about them do throw.",
        "params": {
          "_tokenId": "The identifier for an NFT"
        },
        "returns": {
          "_0": "The address of the owner of the NFT"
        }
      },
      "supportsInterface(bytes4)": {
        "details": "Interface identification is specified in ERC-165. This function  uses less than 30,000 gas.",
        "params": {
          "interfaceID": "The interface identifier, as specified in ERC-165"
        },
        "returns": {
          "_0": "`true` if the contract implements `interfaceID` and  `interfaceID` is not 0xffffffff, `false` otherwise"
        }
      },
      "totalSupply()": {
        "returns": {
          "_0": "A count of valid NFTs tracked by this contract, where each one of  them has an assigned and queryable owner not equal to the zero address"
        }
      }
    },
    "version": 1
  },
  "userdoc": {
    "kind": "user",
    "methods": {
      "balanceOf(address)": {
        "notice": "Count all NFTs assigned to an owner"
      },
      "ownerOf(uint256)": {
        "notice": "Find the owner of an NFT"
      },
      "supportsInterface(bytes4)": {
        "notice": "Query if a contract implements an interface"
      },
      "totalSupply()": {
        "notice": "Count NFTs tracked by this contract"
      }
    },
    "version": 1
  }
}